:100000000C9462000C948A000C948A000C948A0070
:100010000C948A000C948A000C948A000C948A0038
:100020000C948A000C948A000C948A000C9481032E
:100030000C948A000C948A000C948A000C948A0018
:100040000C94DF020C948A000C944F030C94290347
:100050000C948A000C948A000C948A000C948A00F8
:100060000C948A000C948A000000000023002600F3
:10007000290000000000240027002A0000000000E2
:10008000250028002B0004040404040404040202D4
:100090000202020203030303030301020408102007
:1000A0004080010204081020010204081020000012
:1000B0000008000201000003040700000000000027
:1000C0000000820411241FBECFEFD8E0DEBFCDBFF9
:1000D00011E0A0E0B1E0E6EBF0E102C005900D9286
:1000E000AA33B107D9F722E0AAE3B1E001C01D921B
:1000F000AB30B207E1F710E0C2E6D0E004C02197D0
:10010000FE010E945308C136D107C9F70E94DF04DF
:100110000C9459080C9400008F929F92AF92BF925A
:10012000FF920F931F93CF93DF93F09008022BE081
:100130002F1508F44CC020910A0208E512E0021BBA
:10014000110927FD1395000F111F000F111F20919A
:100150000902C8E8D0E0C21BD10927FDD395CC0F16
:10016000DD1FCC0FDD1F4E010D2E000CAA08BB08B1
:100170009801012E000C440B550B281939094A0926
:100180005B09DC010E94DD0624EB30E040E050E03A
:100190000E94B306820E931EA41EB51E8C169D06E9
:1001A0002CF0E801801691060CF4E4012297CC0FA4
:1001B000DD1F2FB7F8948F2D90E0FC01EE0FFF1F8D
:1001C000E80FF91FED51FE4FD283C1832FBFDF919E
:1001D000CF911F910F91FF90BF90AF909F908F9004
:1001E000089590E0FC01E255FF4F2491FC01E65692
:1001F000FF4F3491FC01EA57FF4FE491EE23C9F021
:10020000222339F0233001F1A8F4213019F12230F2
:1002100029F1F0E0EE0FFF1FE458FF4FA591B491D4
:100220008FB7F894EC91611126C030953E233C9332
:100230008FBF08952730A9F02830C9F0243049F73E
:10024000809180008F7D03C0809180008F778093A4
:100250008000DFCF84B58F7784BDDBCF84B58F7D01
:10026000FBCF8091B0008F778093B000D2CF809188
:10027000B0008F7DF9CF3E2BDACFCF93DF9390E0A4
:10028000FC01E656FF4F24918A579F4FFC01849151
:100290008823D1F090E0880F991FFC01EE58FF4FA2
:1002A000A591B491FC01E458FF4FC591D49161111F
:1002B0000EC09FB7F8948C91E22FE0958E238C931B
:1002C0002881E223E8839FBFDF91CF9108958FB704
:1002D000F894EC91E22BEC938FBFF6CF3FB7F894F4
:1002E0008091420190914301A0914401B091450158
:1002F00026B5A89B05C02F3F19F00196A11DB11D81
:100300003FBFBA2FA92F982F8827BC01CD01620FBC
:10031000711D811D911D42E0660F771F881F991F77
:100320004A95D1F708958F929F92AF92BF92CF9244
:10033000DF92EF92FF924B015C010E946E016B0114
:100340007C010E946E016C197D098E099F09683E2F
:10035000734081059105A8F321E0821A9108A10854
:10036000B10888EEC80E83E0D81EE11CF11C811490
:100370009104A104B10429F7FF90EF90DF90CF9092
:10038000BF90AF909F908F900895AF92BF92CF9201
:10039000DF92EF92FF920F931F93CF93DF936C0145
:1003A0007B018B01040F151FEB015E01AE18BF0826
:1003B000C017D10759F06991D601ED91FC910190D8
:1003C000F081E02DC6010995892B79F7C501DF91F0
:1003D000CF911F910F91FF90EF90DF90CF90BF9042
:1003E000AF900895FC01538D448D252F30E0842F6C
:1003F00090E0821B930B541710F0CF96089501974D
:100400000895FC01918D828D981761F0A28DAE0F39
:10041000BF2FB11D5D968C91928D9F5F9F73928FC0
:1004200090E008958FEF9FEF0895FC01918D828DEC
:10043000981731F0828DE80FF11D858D90E00895B9
:100440008FEF9FEF0895FC01918D228D892F90E011
:10045000805C9F4F821B91098F739927089586E4D2
:1004600091E00E94230221E0892B09F420E0822FF1
:10047000089580E090E0892B29F00E942F028111DD
:100480000C9400000895FC01A48DA80FB92FB11D94
:10049000A35ABF4F2C91848D90E001968F739927BA
:1004A000848FA689B7892C93A089B1898C91837098
:1004B00080648C93938D848D981306C00288F38991
:1004C000E02D80818F7D80830895EF92FF920F93BE
:1004D0001F93CF93DF93EC0181E0888F9B8D8C8DF0
:1004E00098131AC0E889F989808185FF15C09FB7E4
:1004F000F894EE89FF896083E889F98980818370A7
:10050000806480839FBF81E090E0DF91CF911F9155
:100510000F91FF90EF900895F62E0B8D10E00F5F76
:100520001F4F0F731127E02E8C8D8E110CC00FB64C
:1005300007FCFACFE889F989808185FFF5CFCE01E4
:100540000E944302F1CFEB8DEC0FFD2FF11DE35A1A
:10055000FF4FF0829FB7F8940B8FEA89FB89808167
:100560008062CFCFCF93DF93EC01888D8823B9F0E1
:10057000AA89BB89E889F9898C9185FD03C08081AE
:1005800086FD0DC00FB607FCF7CF8C9185FFF2CF2B
:10059000808185FFEDCFCE010E944302E9CFDF913C
:1005A000CF910895FC0101900020E9F73197AF0148
:1005B000481B590BBC0186E491E00C94C5011F92C5
:1005C0000F920FB60F9211242F933F938F939F9307
:1005D000AF93BF9380913E0190913F01A091400164
:1005E000B091410130913D0123E0230F2D3758F5A3
:1005F0000196A11DB11D20933D0180933E01909372
:100600003F01A0934001B09341018091420190913C
:100610004301A0914401B09145010196A11DB11D76
:100620008093420190934301A0934401B09345010C
:10063000BF91AF919F918F913F912F910F900FBEDE
:100640000F901F90189526E8230F0296A11DB11D4B
:10065000D2CF1F920F920FB60F9211242F933F9378
:100660004F935F936F937F938F939F93AF93BF93BA
:10067000EF93FF9386E491E00E944302FF91EF9194
:10068000BF91AF919F918F917F916F915F914F91AA
:100690003F912F910F900FBE0F901F9018951F92B2
:1006A0000F920FB60F9211242F938F939F93EF9376
:1006B000FF93E0915601F09157018081E0915C0138
:1006C000F0915D0182FD1BC0908180915F018F5F81
:1006D0008F7320916001821741F0E0915F01F0E09B
:1006E000EA5BFE4F958F80935F01FF91EF919F91A1
:1006F0008F912F910F900FBE0F901F9018958081B2
:10070000F4CF1F920F920FB60F9211242F933F93A5
:100710004F935F936F937F938F939F93AF93BF9309
:10072000CF93DF93EF93FF9380913A01C09107023B
:10073000D0E087FF24C01092850010928400809141
:100740003A018F5F80933A0180913A01082E000CA4
:10075000990B8C179D0724F480913A018C30C4F1D9
:100760008091840090918500049680349C4908F41F
:100770007AC08091840090918500049676C0809123
:100780003A01082E000C990B8C179D07C4F6E091D6
:100790003A018E2FEE0F990BFC01EE0FFF1FE80FB1
:1007A000F91FED51FE4F808186FFC9CFE0913A01DC
:1007B0008E2FEE0F990BFC01EE0FFF1FE80FF91FB4
:1007C000ED51FE4F808160E08F730E94F100B7CF42
:1007D0002091840030918500E0913A018E2FEE0F38
:1007E000990BFC01EE0FFF1FE80FF91FED51FE4FB3
:1007F00081819281820F931F90938900809388005A
:10080000E0913A018E2FEE0F990BFC01EE0FFF1FC6
:10081000E80FF91FED51FE4F808186FF11C0E09176
:100820003A018E2FEE0F990BFC01EE0FFF1FE80F20
:10083000F91FED51FE4F808161E08F730E94F1003E
:10084000FF91EF91DF91CF91BF91AF919F918F91E8
:100850007F916F915F914F913F912F910F900FBEBC
:100860000F901F90189580E49CE9909389008093E5
:1008700088008FEF80933A01E3CFCF92DF92EF921F
:10088000FF920F931F93E82FF92F05C00150110914
:100890002109310961F1908196239417B9F305C0BC
:1008A000015011092109310911F190819623941306
:1008B000F7CFC12CD12CE12CF12C0AC08FEFC81A34
:1008C000D80AE80AF80A0C151D052E053F0579F02F
:1008D00080818623841791F36C2D7D2D8E2D9F2D85
:1008E0001F910F91FF90EF90DF90CF90089560E0FF
:1008F00070E080E090E01F910F91FF90EF90DF900B
:10090000CF900895109249011092480188EE93E02B
:10091000A0E0B0E080934A0190934B01A0934C017A
:10092000B0934D0184E091E090934701809346019C
:1009300085EC90E0909353018093520184EC90E019
:10094000909355018093540180EC90E0909357016F
:100950008093560181EC90E0909359018093580167
:1009600082EC90E090935B0180935A0186EC90E0DA
:1009700090935D0180935C0110925F011092600181
:100980001092610110926201809107028C3098F4FC
:1009900091E0980F909307028093080290E0FC0189
:1009A000EE0FFF1FE80FF91FED51FE4F88EB9BE0A4
:1009B0009283818308958FEF809308020895CF93E7
:1009C000DF93CDB7DEB7A1970FB6F894DEBF0FBEA9
:1009D000CDBF789484B5826084BD84B5816084BDC8
:1009E00085B5826085BD85B5816085BD80916E00CD
:1009F000816080936E0010928100809181008260FE
:100A0000809381008091810081608093810080913A
:100A100080008160809380008091B1008460809329
:100A2000B1008091B00081608093B00080917A0025
:100A3000846080937A0080917A00826080937A004B
:100A400080917A00816080937A0080917A0080683A
:100A500080937A001092C100E0915601F091570105
:100A600082E08083E0915201F09153011082E09185
:100A70005401F09155018FEC808310925E01E0915A
:100A80005A01F0915B0186E08083E0915801F0917A
:100A90005901808180618083E0915801F091590172
:100AA000808188608083E0915801F09159018081B4
:100AB00080688083E0915801F091590180818F7D99
:100AC000808361E089E00E943D0160E08AE00E944D
:100AD0003D0161E083E00E943D0161E082E00E940F
:100AE0003D01809108028C3008F051C061E086E041
:100AF0000E943D0180910802282F30E0F901EE0F9D
:100B0000FF1FE20FF31FED51FE4F9081907C966026
:100B100090831092090210920A022CE0622F0E9428
:100B20004708829FB001112430E020E0AB01420F62
:100B3000531FFA01EE0FFF1FE40FF51FED51FE4F9B
:100B4000908196FD16C02F5F3F4F2C30310571F715
:100B500081110FC01092800082E08093810010927A
:100B6000850010928400B19A80916F00826080931A
:100B70006F00E09108028E2F90E0FC01EE0FFF1F46
:100B8000E80FF91FED51FE4F80818064808390E073
:100B900080E00E948C0061E082E00E94F10093E01E
:100BA000E92EF12C23E2C22ED12C34EA232E30E0A0
:100BB000332E4AE0842E912CA12CB12C60E089E0E8
:100BC0000E94F100C7010197F1F761E089E00E94FE
:100BD000F100C6010197F1F760E089E00E94F100A1
:100BE000F1016491E0E9F0E08491E82FF0E0EE0F8C
:100BF000FF1FE859FF4F8591949100E412E42FE024
:100C000030E0462F0E943D04611571058105910574
:100C100029F06F5F7F4F8F4F9F4F9F700E944E074D
:100C200026E933E44BE05DE30E94B20720E030E0C8
:100C300040E05FE30E94B2070E94160770933C01F8
:100C400060933B01615071096331710508F068C020
:100C500082E191E00E94D20287E291E00E94D202FA
:100C60008AE590E00E948C0061E083E00E94F10040
:100C700060E082E00E94F10068EB7BE080E090E0C1
:100C80000E9493018AE291E00E94D20240903B01CF
:100C900050903C01052C000C6608770877FE4DC08B
:100CA0006DE286E491E00E94650222273327A901C4
:100CB000241935094609570919A2CE0181963C012C
:100CC000CA01B901A50194010E94E506605DF30126
:100CD00062933F01211531054105510589F76114E2
:100CE000710419F0C3010E94D20285E391E00E94D1
:100CF000D20287E291E00E94D20264E670E080E0D6
:100D000090E00E94930180E090E0892B09F456CF97
:100D10000E942F02882309F451CF0E9400004ECF79
:100D200090E080E00E948C0060E083E00E94F1008F
:100D300061E082E00E94F100A5CFA301920119A217
:100D4000CE0181963C01CA01B901A50194010E941E
:100D5000E506605DF30162933F0121153105410510
:100D6000510589F7BCCF052E97FB1EF400940E9415
:100D7000CA0657FD07D00E94E50607FC03D04EF4D3
:100D80000C94CA0650954095309521953F4F4F4F92
:100D90005F4F089590958095709561957F4F8F4F27
:100DA0009F4F08950E940707A59F900DB49F900D37
:100DB000A49F800D911D11240895B7FF0C94D206B5
:100DC0000E94D206821B930B0895A1E21A2EAA1B41
:100DD000BB1BFD010DC0AA1FBB1FEE1FFF1FA217EB
:100DE000B307E407F50720F0A21BB30BE40BF50BE8
:100DF000661F771F881F991F1A9469F76095709571
:100E0000809590959B01AC01BD01CF010895A29FF3
:100E1000B001B39FC001A39F700D811D1124911DCE
:100E2000B29F700D811D1124911D08950E941D0710
:100E30006894B1110C94AC0708950E94910788F052
:100E40009F5798F0B92F9927B751B0F0E1F0660F8E
:100E5000771F881F991F1AF0BA95C9F714C0B130CF
:100E600091F00E94AB07B1E008950C94AB07672F97
:100E7000782F8827B85F39F0B93FCCF386957795FE
:100E80006795B395D9F73EF49095809570956195E7
:100E90007F4F8F4F9F4F0895E89409C097FB3EF412
:100EA00090958095709561957F4F8F4F9F4F9923B7
:100EB000A9F0F92F96E9BB279395F6958795779535
:100EC0006795B795F111F8CFFAF4BB0F11F460FFF5
:100ED0001BC06F5F7F4F8F4F9F4F16C0882311F04D
:100EE00096E911C0772321F09EE8872F762F05C061
:100EF000662371F096E8862F70E060E02AF09A95FC
:100F0000660F771F881FDAF7880F9695879597F9F0
:100F1000089557FD9058440F551F59F05F3F71F0E9
:100F20004795880F97FB991F61F09F3F79F0879550
:100F30000895121613061406551FF2CF4695F1DFD9
:100F400008C0161617061806991FF1CF8695710569
:100F5000610508940895E894BB2766277727CB019D
:100F600097F908950E94C5070C9436080E94280836
:100F700038F00E942F0820F0952311F00C941F08E0
:100F80000C94250811240C94AC070E94890770F377
:100F9000959FC1F3950F50E0551F629FF001729F1E
:100FA000BB27F00DB11D639FAA27F00DB11DAA1F2D
:100FB000649F6627B00DA11D661F829F2227B00D7A
:100FC000A11D621F739FB00DA11D621F839FA00D05
:100FD000611D221F749F3327A00D611D231F849F55
:100FE000600D211D822F762F6A2F11249F575040AC
:100FF0009AF0F1F088234AF0EE0FFF1FBB1F661F27
:10100000771F881F91505040A9F79E3F510580F0EF
:101010000C941F080C94AC075F3FE4F3983ED4F3A4
:10102000869577956795B795F795E7959F5FC1F793
:10103000FE2B880F911D9695879597F9089597F93E
:101040009F6780E870E060E008959FEF80EC08956E
:1010500000240A9416161706180609060895002497
:101060000A9412161306140605060895092E039411
:10107000000C11F4882352F0BB0F40F4BF2B11F485
:1010800060FF04C06F5F7F4F8F4F9F4F0895991B84
:1010900079E004C0991F961708F0961B881F7A956F
:1010A000C9F780950895EE0FFF1F0590F491E02D8C
:0610B0000994F894FFCF43
:1010B600000000006502C501F201B202230201022E
:1010C6001502414354494F4E3A204F70656E696E82
:1010D60067204C696421000D0A0044697374616ECF
:0A10E60063653A200020636D0000EE
:00000001FF
